{
  "contractName": "Auction",
  "abi": [
    {
      "inputs": [
        {
          "internalType": "address payable",
          "name": "_owner",
          "type": "address"
        },
        {
          "internalType": "uint256",
          "name": "_minimumBid",
          "type": "uint256"
        },
        {
          "internalType": "address",
          "name": "_auctioneer",
          "type": "address"
        }
      ],
      "stateMutability": "nonpayable",
      "type": "constructor"
    },
    {
      "anonymous": false,
      "inputs": [
        {
          "indexed": false,
          "internalType": "address",
          "name": "winner",
          "type": "address"
        },
        {
          "indexed": false,
          "internalType": "uint256",
          "name": "amount",
          "type": "uint256"
        }
      ],
      "name": "AuctionEnded",
      "type": "event"
    },
    {
      "anonymous": false,
      "inputs": [
        {
          "indexed": false,
          "internalType": "bytes32",
          "name": "hashedBid",
          "type": "bytes32"
        }
      ],
      "name": "generatesBlindBid",
      "type": "event"
    },
    {
      "anonymous": false,
      "inputs": [
        {
          "indexed": false,
          "internalType": "address",
          "name": "bidder",
          "type": "address"
        },
        {
          "indexed": false,
          "internalType": "uint256",
          "name": "amount",
          "type": "uint256"
        },
        {
          "indexed": false,
          "internalType": "uint256",
          "name": "userCount",
          "type": "uint256"
        }
      ],
      "name": "roundEnded",
      "type": "event"
    },
    {
      "anonymous": false,
      "inputs": [
        {
          "indexed": false,
          "internalType": "uint256",
          "name": "amount",
          "type": "uint256"
        }
      ],
      "name": "roundStarted",
      "type": "event"
    },
    {
      "inputs": [],
      "name": "activeUsersCount",
      "outputs": [
        {
          "internalType": "uint256",
          "name": "",
          "type": "uint256"
        }
      ],
      "stateMutability": "view",
      "type": "function",
      "constant": true
    },
    {
      "inputs": [],
      "name": "auctioneer",
      "outputs": [
        {
          "internalType": "address",
          "name": "",
          "type": "address"
        }
      ],
      "stateMutability": "view",
      "type": "function",
      "constant": true
    },
    {
      "inputs": [
        {
          "internalType": "address",
          "name": "",
          "type": "address"
        },
        {
          "internalType": "uint256",
          "name": "",
          "type": "uint256"
        }
      ],
      "name": "bids",
      "outputs": [
        {
          "internalType": "bytes32",
          "name": "blindedBid",
          "type": "bytes32"
        },
        {
          "internalType": "uint256",
          "name": "deposit",
          "type": "uint256"
        }
      ],
      "stateMutability": "view",
      "type": "function",
      "constant": true
    },
    {
      "inputs": [],
      "name": "cancelled",
      "outputs": [
        {
          "internalType": "bool",
          "name": "",
          "type": "bool"
        }
      ],
      "stateMutability": "view",
      "type": "function",
      "constant": true
    },
    {
      "inputs": [],
      "name": "ended",
      "outputs": [
        {
          "internalType": "bool",
          "name": "",
          "type": "bool"
        }
      ],
      "stateMutability": "view",
      "type": "function",
      "constant": true
    },
    {
      "inputs": [],
      "name": "highestBid",
      "outputs": [
        {
          "internalType": "uint256",
          "name": "",
          "type": "uint256"
        }
      ],
      "stateMutability": "view",
      "type": "function",
      "constant": true
    },
    {
      "inputs": [],
      "name": "highestBidder",
      "outputs": [
        {
          "internalType": "address",
          "name": "",
          "type": "address"
        }
      ],
      "stateMutability": "view",
      "type": "function",
      "constant": true
    },
    {
      "inputs": [],
      "name": "minimumBid",
      "outputs": [
        {
          "internalType": "uint256",
          "name": "",
          "type": "uint256"
        }
      ],
      "stateMutability": "view",
      "type": "function",
      "constant": true
    },
    {
      "inputs": [],
      "name": "owner",
      "outputs": [
        {
          "internalType": "address payable",
          "name": "",
          "type": "address"
        }
      ],
      "stateMutability": "view",
      "type": "function",
      "constant": true
    },
    {
      "inputs": [],
      "name": "roundNumber",
      "outputs": [
        {
          "internalType": "uint256",
          "name": "",
          "type": "uint256"
        }
      ],
      "stateMutability": "view",
      "type": "function",
      "constant": true
    },
    {
      "inputs": [
        {
          "internalType": "uint256",
          "name": "value",
          "type": "uint256"
        }
      ],
      "name": "generateBlindedBidBytes32",
      "outputs": [],
      "stateMutability": "nonpayable",
      "type": "function"
    },
    {
      "inputs": [
        {
          "internalType": "bytes32",
          "name": "_blindedBid",
          "type": "bytes32"
        }
      ],
      "name": "bid",
      "outputs": [],
      "stateMutability": "payable",
      "type": "function",
      "payable": true
    },
    {
      "inputs": [
        {
          "internalType": "uint256",
          "name": "_value",
          "type": "uint256"
        }
      ],
      "name": "revealAndPlaceBid",
      "outputs": [
        {
          "internalType": "bool",
          "name": "success",
          "type": "bool"
        }
      ],
      "stateMutability": "nonpayable",
      "type": "function"
    },
    {
      "inputs": [],
      "name": "roundEnd",
      "outputs": [],
      "stateMutability": "nonpayable",
      "type": "function"
    },
    {
      "inputs": [],
      "name": "withdraw",
      "outputs": [
        {
          "internalType": "bool",
          "name": "success",
          "type": "bool"
        }
      ],
      "stateMutability": "nonpayable",
      "type": "function"
    },
    {
      "inputs": [],
      "name": "cancelAuction",
      "outputs": [],
      "stateMutability": "nonpayable",
      "type": "function"
    }
  ],
  "bytecode": "0x60806040526096600b55603c600c5534801561001a57600080fd5b50604051610fcf380380610fcf8339818101604052606081101561003d57600080fd5b8101908080519060200190929190805190602001909291908051906020019092919050505080600260006101000a81548173ffffffffffffffffffffffffffffffffffffffff021916908373ffffffffffffffffffffffffffffffffffffffff16021790555082600160006101000a81548173ffffffffffffffffffffffffffffffffffffffff021916908373ffffffffffffffffffffffffffffffffffffffff16021790555081600081905550600b544201600981905550600c5460095401600a819055506001600581905550505050610eb28061011d6000396000f3fe6080604052600436106100f35760003560e01c80638fa8b7901161008a578063c02e580e11610059578063c02e580e1461038e578063d1ab07b4146103a5578063d3a86386146103f6578063d57bde7914610421576100f3565b80638fa8b790146102db57806391f90157146102f2578063957bb1e0146103335780639a82a09a14610361576100f3565b80633ccfd60b116100c65780633ccfd60b146102015780634e2786fb1461022e5780635ec2c7bf146102595780638da5cb5b1461029a576100f3565b806301495c1c146100f857806312fa6feb1461016e57806322b457271461019b5780632a1a985b146101c6575b600080fd5b34801561010457600080fd5b506101516004803603604081101561011b57600080fd5b81019080803573ffffffffffffffffffffffffffffffffffffffff1690602001909291908035906020019092919050505061044c565b604051808381526020018281526020019250505060405180910390f35b34801561017a57600080fd5b5061018361048a565b60405180821515815260200191505060405180910390f35b3480156101a757600080fd5b506101b061049d565b6040518082815260200191505060405180910390f35b3480156101d257600080fd5b506101ff600480360360208110156101e957600080fd5b81019080803590602001909291905050506104a3565b005b34801561020d57600080fd5b5061021661059e565b60405180821515815260200191505060405180910390f35b34801561023a57600080fd5b5061024361070b565b6040518082815260200191505060405180910390f35b34801561026557600080fd5b5061026e610711565b604051808273ffffffffffffffffffffffffffffffffffffffff16815260200191505060405180910390f35b3480156102a657600080fd5b506102af610737565b604051808273ffffffffffffffffffffffffffffffffffffffff16815260200191505060405180910390f35b3480156102e757600080fd5b506102f061075d565b005b3480156102fe57600080fd5b50610307610808565b604051808273ffffffffffffffffffffffffffffffffffffffff16815260200191505060405180910390f35b61035f6004803603602081101561034957600080fd5b810190808035906020019092919050505061082e565b005b34801561036d57600080fd5b506103766108ee565b60405180821515815260200191505060405180910390f35b34801561039a57600080fd5b506103a3610901565b005b3480156103b157600080fd5b506103de600480360360208110156103c857600080fd5b8101908080359060200190929190505050610b56565b60405180821515815260200191505060405180910390f35b34801561040257600080fd5b5061040b610dfa565b6040518082815260200191505060405180910390f35b34801561042d57600080fd5b50610436610e00565b6040518082815260200191505060405180910390f35b6007602052816000526040600020818154811061046557fe5b9060005260206000209060020201600091509150508060000154908060010154905082565b600d60009054906101000a900460ff1681565b60065481565b600d60009054906101000a900460ff16156104bd57600080fd5b600160009054906101000a900473ffffffffffffffffffffffffffffffffffffffff1673ffffffffffffffffffffffffffffffffffffffff163373ffffffffffffffffffffffffffffffffffffffff16141561051857600080fd5b60008133604051602001808381526020018273ffffffffffffffffffffffffffffffffffffffff1660601b8152601401925050506040516020818303038152906040528051906020012090507ecbb7708836a78d8830630aecb1969c42abc0edcc0518b3dbee341b18baeb96816040518082815260200191505060405180910390a15050565b6000600360009054906101000a900473ffffffffffffffffffffffffffffffffffffffff1673ffffffffffffffffffffffffffffffffffffffff163373ffffffffffffffffffffffffffffffffffffffff16141580610610575060011515600d60019054906101000a900460ff161515145b61061957600080fd5b600080339150600860008373ffffffffffffffffffffffffffffffffffffffff1673ffffffffffffffffffffffffffffffffffffffff1681526020019081526020016000205490506000811115610701576000600860008473ffffffffffffffffffffffffffffffffffffffff1673ffffffffffffffffffffffffffffffffffffffff168152602001908152602001600020819055508173ffffffffffffffffffffffffffffffffffffffff166108fc829081150290604051600060405180830381858888f193505050501580156106f5573d6000803e3d6000fd5b50600192505050610708565b6000925050505b90565b60055481565b600260009054906101000a900473ffffffffffffffffffffffffffffffffffffffff1681565b600160009054906101000a900473ffffffffffffffffffffffffffffffffffffffff1681565b600d60019054906101000a900460ff161561077757600080fd5b600d60009054906101000a900460ff161561079157600080fd5b600260009054906101000a900473ffffffffffffffffffffffffffffffffffffffff1673ffffffffffffffffffffffffffffffffffffffff163373ffffffffffffffffffffffffffffffffffffffff16146107eb57600080fd5b6001600d60016101000a81548160ff021916908315150217905550565b600360009054906101000a900473ffffffffffffffffffffffffffffffffffffffff1681565b60095480421061083d57600080fd5b600d60019054906101000a900460ff161561085757600080fd5b600760003373ffffffffffffffffffffffffffffffffffffffff1673ffffffffffffffffffffffffffffffffffffffff1681526020019081526020016000206040518060400160405280848152602001348152509080600181540180825580915050600190039060005260206000209060020201600090919091909150600082015181600001556020820151816001015550505050565b600d60019054906101000a900460ff1681565b600a5480421161091057600080fd5b600260009054906101000a900473ffffffffffffffffffffffffffffffffffffffff1673ffffffffffffffffffffffffffffffffffffffff163373ffffffffffffffffffffffffffffffffffffffff161461096a57600080fd5b600d60019054906101000a900460ff161561098457600080fd5b600d60009054906101000a900460ff161561099e57600080fd5b60016006541115610a39577f058b7dbb20bfd3991f864b0981b80accb9620c4b2e4f38712eaf1b53b189a0b3600360009054906101000a900473ffffffffffffffffffffffffffffffffffffffff16600454600654604051808473ffffffffffffffffffffffffffffffffffffffff168152602001838152602001828152602001935050505060405180910390a1610a34610e06565b610b53565b600d60009054906101000a900460ff1615610a5357600080fd5b7fdaec4582d5d9595688c8c98545fdd1c696d41c6aeaeb636737e84ed2f5c00eda600360009054906101000a900473ffffffffffffffffffffffffffffffffffffffff16600454604051808373ffffffffffffffffffffffffffffffffffffffff1681526020018281526020019250505060405180910390a16001600d60006101000a81548160ff021916908315150217905550600160009054906101000a900473ffffffffffffffffffffffffffffffffffffffff1673ffffffffffffffffffffffffffffffffffffffff166108fc6004549081150290604051600060405180830381858888f19350505050158015610b51573d6000803e3d6000fd5b505b50565b6000600954804211610b6757600080fd5b600a54804210610b7657600080fd5b600d60019054906101000a900460ff1615610b9057600080fd5b600d60009054906101000a900460ff1615610baa57600080fd5b6000600760003373ffffffffffffffffffffffffffffffffffffffff1673ffffffffffffffffffffffffffffffffffffffff1681526020019081526020016000208054905090506005548114610bff57600080fd5b600080600760003373ffffffffffffffffffffffffffffffffffffffff1673ffffffffffffffffffffffffffffffffffffffff1681526020019081526020016000206001840381548110610c4f57fe5b906000526020600020906002020190508633604051602001808381526020018273ffffffffffffffffffffffffffffffffffffffff1660601b81526014019250505060405160208183030381529060405280519060200120816000015414610cb657600080fd5b60005b83811015610d34576000600760003373ffffffffffffffffffffffffffffffffffffffff1673ffffffffffffffffffffffffffffffffffffffff1681526020019081526020016000208281548110610d0d57fe5b90600052602060002090600202019050806001015484019350508080600101915050610cb9565b506000548211610d4357600080fd5b600454821115610d96578160048190555033600360006101000a81548173ffffffffffffffffffffffffffffffffffffffff021916908373ffffffffffffffffffffffffffffffffffffffff1602179055505b81600860003373ffffffffffffffffffffffffffffffffffffffff1673ffffffffffffffffffffffffffffffffffffffff16815260200190815260200160002081905550600660008154809291906001019190505550600195505050505050919050565b60005481565b60045481565b6004546000819055506000600681905550600560008154809291906001019190505550600b544201600981905550600c5460095401600a819055507f64402c079e310de4fa60493e0474309303db59c5e6fb8e068a192e8d1997fe5a6000546040518082815260200191505060405180910390a156fea2646970667358221220f4c8e8aa7dc690ffe4fe590de7a8583a4fdaa175416c3dc5e1429e5525b48c1264736f6c63430007000033",
  "immutableReferences": {},
  "source": "// SPDX-License-Identifier: MIT\r\npragma solidity >=0.7.0 <0.9.0;\r\n \r\ncontract Auction {\r\n    //VARIABLES\r\n    uint256 public minimumBid;\r\n    address payable public owner;\r\n    address public auctioneer;\r\n    address public highestBidder;\r\n    uint256 public highestBid;\r\n    uint256 public roundNumber;\r\n    uint256 public activeUsersCount;\r\n    struct Bid {\r\n        bytes32 blindedBid;\r\n        uint256 deposit;\r\n    }\r\n \r\n    mapping(address => Bid[]) public bids;\r\n    mapping(address => uint256) pendingReturns;\r\n \r\n    uint256 biddingEnd;\r\n    uint256 revealEnd;\r\n    uint256 biddingTime = 150 seconds; // bidding time is 240 seconds\r\n    uint256 revealTime = 60 seconds; // bid revealing time is 120 seconds\r\n    //uint256 bufferTime; // time between 2 rounds (round ending & new round starting)\r\n    //uint256 roundEndTime;\r\n    bool public ended;\r\n    bool public cancelled;\r\n \r\n    //address[] public addressIndices;\r\n    //uint256 public previousRoundUsersCount; //To count the number of active users from the previous round (also used in the first round)\r\n    //uint256 public currentRoundUsersCount;\r\n    //address[] addresses;\r\n    //address[] withdrawnUsers;\r\n    //uint256[] bidValues;\r\n \r\n    //mapping(address => uint256) public previousBids;\r\n    //mapping(address => uint256) currentRoundBid; // to store the incremental bid passed in the current round\r\n \r\n    // MODIFIERS\r\n \r\n    modifier onlyBefore(uint256 _time) {\r\n        require(block.timestamp < _time);\r\n        _;\r\n    }\r\n    modifier onlyAfter(uint256 _time) {\r\n        require(block.timestamp > _time);\r\n        _;\r\n    }\r\n \r\n    modifier onlyAuctioneer() {\r\n        require(msg.sender == auctioneer);\r\n        _;\r\n    }\r\n    modifier onlyOwner() {\r\n        require(msg.sender == owner);\r\n        _;\r\n    }\r\n    modifier onlyNotOwner() {\r\n        require(msg.sender != owner);\r\n        _;\r\n    }\r\n    modifier onlyNotCancelled() {\r\n        require(!cancelled);\r\n        _;\r\n    }\r\n    modifier onlyValidWithdrawal() {\r\n        require(msg.sender != highestBidder || cancelled == true);\r\n        _;\r\n    }\r\n    modifier onlyNotEnded() {\r\n        require(!ended);\r\n        _;\r\n    }\r\n \r\n    // EVENTS\r\n    event generatesBlindBid(bytes32 hashedBid);\r\n    event roundEnded(address bidder, uint256 amount, uint256 userCount);\r\n    event AuctionEnded(address winner, uint256 amount);\r\n    event roundStarted(uint256 amount);\r\n \r\n    //FUNCTIONS\r\n \r\n    constructor(\r\n        address payable _owner,\r\n        uint256 _minimumBid,\r\n        address _auctioneer\r\n    ) {\r\n        auctioneer = _auctioneer;\r\n        owner = _owner;\r\n        minimumBid = _minimumBid;\r\n        biddingEnd = block.timestamp + biddingTime;\r\n        revealEnd = biddingEnd + revealTime;\r\n        //bufferTime = _bufferTime;\r\n        roundNumber = 1;\r\n    }\r\n \r\n    function generateBlindedBidBytes32(uint256 value)\r\n        public\r\n        onlyNotEnded\r\n        onlyNotOwner\r\n    {\r\n        bytes32 hashedBid;\r\n        hashedBid = keccak256(abi.encodePacked(value, msg.sender)); // taking the user address as the cryptographic salt\r\n        emit generatesBlindBid(hashedBid);\r\n       // return hashedBid;\r\n    }\r\n \r\n    function bid(bytes32 _blindedBid)\r\n        public\r\n        payable\r\n        onlyBefore(biddingEnd)\r\n        onlyNotCancelled\r\n    {\r\n        // if (roundNumber > 1) {\r\n        //     require(\r\n        //         block.timestamp > (roundEndTime + bufferTime),\r\n        //         \"Wait for Buffer Time to finish to place a bid\"\r\n        //     );\r\n        // }\r\n        bids[msg.sender].push(\r\n            Bid({blindedBid: _blindedBid, deposit: msg.value})\r\n        ); // push is used as an array of structs exists and so, the newest struct is pushed into the array and forms the most recent element\r\n    }\r\n \r\n    function revealAndPlaceBid(uint256 _value)\r\n        public\r\n        onlyAfter(biddingEnd)\r\n        onlyBefore(revealEnd)\r\n        onlyNotCancelled\r\n        onlyNotEnded\r\n        returns (bool success)\r\n    {\r\n        // this function merges both the bid reveal process and the bid placing process\r\n        // To reveal the bid submitted by the user and place the bid (will return true if the bid is sucessfully placed)\r\n        uint256 length = bids[msg.sender].length;\r\n        // 0x1234 => [[hdjwhksjkd, 1], [ervbcdbchebdskcb, 2]]\r\n        // length measures the number of total bids submitted by the user in all rounds till now (single bid per round)\r\n        require(length == roundNumber); // check to make sure the user has participated in all rounds of the auction till now\r\n \r\n        uint256 totalBidValue;\r\n        Bid storage bidToCheck = bids[msg.sender][length - 1];\r\n \r\n        require(\r\n            bidToCheck.blindedBid ==\r\n                keccak256(abi.encodePacked(_value, msg.sender))\r\n        );\r\n \r\n        for (uint256 i = 0; i < length; i++) {\r\n            Bid storage roundBid = bids[msg.sender][i];\r\n            totalBidValue += roundBid.deposit;\r\n        }\r\n        // if (totalBidValue <= minimumBid) {\r\n        //     payable(msg.sender).transfer(totalBidValue); // if the total value of the user's bid is less than the minimum bid, the money is transferred back to the user and the bid is not accepted\r\n        //     return false;\r\n        // }\r\n        require(totalBidValue > minimumBid);\r\n        // (when totalBidValue > minimumBid)\r\n        if (totalBidValue > highestBid) {\r\n            highestBid = totalBidValue;\r\n            highestBidder = msg.sender;\r\n        }\r\n        pendingReturns[msg.sender] = totalBidValue;\r\n        activeUsersCount++; // this must be reset / initialized at the start of every round\r\n        return true;\r\n    }\r\n \r\n    function roundEnd()\r\n        public\r\n        onlyAfter(revealEnd)\r\n        onlyAuctioneer\r\n        onlyNotCancelled\r\n        onlyNotEnded\r\n    {\r\n        // if will be the case where one round has ended, more than 1 user remains and the auction proceeds to the next round\r\n        //roundEndTime = block.timestamp;\r\n \r\n        // must check for a case where no users participate in a round\r\n \r\n        if (activeUsersCount > 1) {\r\n            emit roundEnded(highestBidder, highestBid, activeUsersCount);\r\n            roundStart();\r\n            // minimumBid = highestBid;\r\n            // activeUsersCount = 0;\r\n            // roundNumber++;\r\n        }\r\n        // else will be the case where the auction has ended and only 1 user remains\r\n        else {\r\n            require(!ended);\r\n            emit AuctionEnded(highestBidder, highestBid);\r\n            ended = true;\r\n            // transfer the NFT to the highest bidder\r\n            // transfer the winning bid to the NFT owner\r\n            owner.transfer(highestBid);\r\n        }\r\n    }\r\n \r\n    function roundStart() internal {\r\n        minimumBid = highestBid;\r\n        activeUsersCount = 0;\r\n        roundNumber++;\r\n        biddingEnd = block.timestamp + biddingTime;\r\n        revealEnd = biddingEnd + revealTime;\r\n        emit roundStarted(minimumBid);\r\n        // return minimumBid;\r\n    }\r\n \r\n    function withdraw() public onlyValidWithdrawal returns (bool success) {\r\n        // mention when a user can withdraw w.r.t the rounds taking place\r\n        address withdrawalAccount;\r\n        uint256 withdrawalAmount;\r\n \r\n        withdrawalAccount = msg.sender;\r\n        withdrawalAmount = pendingReturns[withdrawalAccount];\r\n        if (withdrawalAmount > 0) {\r\n            pendingReturns[withdrawalAccount] = 0;\r\n            payable(withdrawalAccount).transfer(withdrawalAmount);\r\n            return true;\r\n        } else {\r\n            return false;\r\n        }\r\n    }\r\n \r\n    function cancelAuction()\r\n        public\r\n        onlyNotCancelled\r\n        onlyNotEnded\r\n        onlyAuctioneer\r\n    {\r\n        cancelled = true;\r\n    }\r\n}\r\n \r\n/*\r\n    function roundOneBid(bytes32 _blindedBid)\r\n        public\r\n        payable\r\n        onlyBefore(biddingEnd)\r\n    {\r\n        previousRoundUsersCount++;\r\n        bids[msg.sender].push(\r\n            Bid({blindedBid: _blindedBid, deposit: msg.value})\r\n        );\r\n        previousBids[msg.sender] = msg.value;\r\n        addresses.push(msg.sender);\r\n        bidValues.push(msg.value);\r\n        previousBids[msg.sender] = msg.value;\r\n    }\r\n \r\n    function futureRoundBid(bytes32 _blindedBid)\r\n        public\r\n        payable\r\n        onlyBefore(biddingEnd)\r\n    {\r\n        currentRoundUsersCount++;\r\n        bids[msg.sender].push(\r\n            Bid({blindedBid: _blindedBid, deposit: msg.value})\r\n        );\r\n        currentRoundBid[msg.sender] = msg.value;\r\n        /*\r\n        if (currentRoundBid[msg.sender] == 0) {\r\n            currentRoundUsersCount--;\r\n            // find the address of that user in the addresses array, shift it to the last element in the array and pop it out (basically delete that address from the array)\r\n            for (uint256 i = 0; i < addresses.length; i++) {\r\n                if (addresses[i] == msg.sender) {\r\n                    address temp;\r\n                    temp = addresses[addresses.length - 1];\r\n                    addresses[addresses.length - 1] = addresses[i];\r\n                    addresses[i] = temp;\r\n                    delete addresses[addresses.length - 1];\r\n                }\r\n            }\r\n        }\r\n        \r\n    }\r\n \r\n \r\n    /*\r\n    function placeBid(address bidder, uint256 value)\r\n        internal\r\n        returns (bool success)\r\n    { \r\n        // This function has been clubbed with the bid reveal function\r\n        uint256 totalBid = pendingReturns[msg.sender];\r\n        if (totalBid <= minimumBid) {\r\n            return false;\r\n        }\r\n        \r\n        if (totalBid > minimumBid) {\r\n            if (totalBid > highestBid) {\r\n                highestBid = totalBid;\r\n                highestBidder = bidder;\r\n            }\r\n            return true;\r\n        }\r\n        \r\n        // I can write the above commented code to find the highest bid but I do not know the order of execution of the 'internal' function\r\n        if (totalBid > minimumBid) {}\r\n \r\n    }\r\n    */\r\n \r\n/*\r\n    function RoundEnd()\r\n        public\r\n        onlyAfter(revealEnd)\r\n        onlyAuctioneer\r\n        returns (uint256 _minimumBid)\r\n    {\r\n        /*for (uint256 i = 0; i < addresses.length; i++) {\r\n            if (previousBids[addresses[i]] > highestBid) {\r\n                highestBid = previousBids[addresses[i]];\r\n                highestBidder = addresses[i];\r\n            }\r\n        }\r\n        */\r\n//minimumBid = highestBid; // set the minimum bid(for the next round) equal to the highest bid of the current round\r\n//return minimumBid;\r\n// }\r\n \r\n/*\r\n    function roundEnd() public onlyAfter(revealEnd) onlyAuctioneer {\r\n        // address[] storage withdrawnUsers;\r\n        roundNumber++;\r\n        for (uint256 i = 0; i < addresses.length; i++) {\r\n            currentRoundBid[addresses[i]] += previousBids[addresses[i]];\r\n            if (currentRoundBid[addresses[i]] == previousBids[addresses[i]]) {\r\n                withdrawnUsers.push(addresses[i]);\r\n            }\r\n        }\r\n        for (uint256 i = 0; i < addresses.length; i++) {\r\n            for (uint256 j = 0; j < withdrawnUsers.length; j++) {\r\n                if (addresses[i] == withdrawnUsers[j]) {\r\n                    delete addresses[i]; // this creates empty elements at the deleted places in the array -> work on shifting\r\n                }\r\n            }\r\n        }\r\n        \r\n \r\n        // is called only after the bid reveal process for that round is over\r\n       // minimumBid = highestBid; //the minimum bid for the next round is equal to the highest bid of the just concluded round\r\n        // find the number of active users - the no. of users who participated in the just concluded round\r\n \r\n        // THIS FUNCTION IS INCOMPLETE\r\n    }\r\n    */\r\n",
  "sourcePath": "/mnt/c/Users/anike/OneDrive/Desktop/UST/SMRA/decentAuction/contracts/Auction.sol",
  "compiler": {
    "name": "solc",
    "version": "0.7.0+commit.9e61f92b.Emscripten.clang"
  },
  "schemaVersion": "3.2.3",
  "updatedAt": "2021-07-01T13:01:47.348Z",
  "networkType": "ethereum",
  "devdoc": {
    "kind": "dev",
    "methods": {},
    "version": 1
  },
  "userdoc": {
    "kind": "user",
    "methods": {},
    "version": 1
  }
}