{
  "contractName": "Auction",
  "abi": [
    {
      "inputs": [
        {
          "internalType": "address payable",
          "name": "_owner",
          "type": "address"
        },
        {
          "internalType": "uint256",
          "name": "_minimumBid",
          "type": "uint256"
        },
        {
          "internalType": "address",
          "name": "_auctioneer",
          "type": "address"
        }
      ],
      "stateMutability": "nonpayable",
      "type": "constructor"
    },
    {
      "anonymous": false,
      "inputs": [
        {
          "indexed": false,
          "internalType": "address",
          "name": "winner",
          "type": "address"
        },
        {
          "indexed": false,
          "internalType": "uint256",
          "name": "amount",
          "type": "uint256"
        }
      ],
      "name": "AuctionEnded",
      "type": "event"
    },
    {
      "anonymous": false,
      "inputs": [
        {
          "indexed": true,
          "internalType": "bytes32",
          "name": "hashed",
          "type": "bytes32"
        }
      ],
      "name": "GetBlindBid",
      "type": "event"
    },
    {
      "anonymous": false,
      "inputs": [
        {
          "indexed": false,
          "internalType": "address",
          "name": "bidder",
          "type": "address"
        },
        {
          "indexed": false,
          "internalType": "uint256",
          "name": "amount",
          "type": "uint256"
        },
        {
          "indexed": false,
          "internalType": "uint256",
          "name": "userCount",
          "type": "uint256"
        }
      ],
      "name": "roundEnded",
      "type": "event"
    },
    {
      "anonymous": false,
      "inputs": [
        {
          "indexed": false,
          "internalType": "uint256",
          "name": "amount",
          "type": "uint256"
        }
      ],
      "name": "roundStarted",
      "type": "event"
    },
    {
      "inputs": [],
      "name": "activeUsersCount",
      "outputs": [
        {
          "internalType": "uint256",
          "name": "",
          "type": "uint256"
        }
      ],
      "stateMutability": "view",
      "type": "function",
      "constant": true
    },
    {
      "inputs": [],
      "name": "auctioneer",
      "outputs": [
        {
          "internalType": "address",
          "name": "",
          "type": "address"
        }
      ],
      "stateMutability": "view",
      "type": "function",
      "constant": true
    },
    {
      "inputs": [
        {
          "internalType": "address",
          "name": "",
          "type": "address"
        },
        {
          "internalType": "uint256",
          "name": "",
          "type": "uint256"
        }
      ],
      "name": "bids",
      "outputs": [
        {
          "internalType": "uint256",
          "name": "maskedBid",
          "type": "uint256"
        },
        {
          "internalType": "bytes32",
          "name": "saltHash",
          "type": "bytes32"
        }
      ],
      "stateMutability": "view",
      "type": "function",
      "constant": true
    },
    {
      "inputs": [],
      "name": "cancelled",
      "outputs": [
        {
          "internalType": "bool",
          "name": "",
          "type": "bool"
        }
      ],
      "stateMutability": "view",
      "type": "function",
      "constant": true
    },
    {
      "inputs": [],
      "name": "copy",
      "outputs": [
        {
          "internalType": "uint256",
          "name": "",
          "type": "uint256"
        }
      ],
      "stateMutability": "view",
      "type": "function",
      "constant": true
    },
    {
      "inputs": [],
      "name": "ended",
      "outputs": [
        {
          "internalType": "bool",
          "name": "",
          "type": "bool"
        }
      ],
      "stateMutability": "view",
      "type": "function",
      "constant": true
    },
    {
      "inputs": [],
      "name": "hashedBid",
      "outputs": [
        {
          "internalType": "bytes32",
          "name": "",
          "type": "bytes32"
        }
      ],
      "stateMutability": "view",
      "type": "function",
      "constant": true
    },
    {
      "inputs": [],
      "name": "highestBid",
      "outputs": [
        {
          "internalType": "uint256",
          "name": "",
          "type": "uint256"
        }
      ],
      "stateMutability": "view",
      "type": "function",
      "constant": true
    },
    {
      "inputs": [],
      "name": "highestBidder",
      "outputs": [
        {
          "internalType": "address",
          "name": "",
          "type": "address"
        }
      ],
      "stateMutability": "view",
      "type": "function",
      "constant": true
    },
    {
      "inputs": [],
      "name": "minimumBid",
      "outputs": [
        {
          "internalType": "uint256",
          "name": "",
          "type": "uint256"
        }
      ],
      "stateMutability": "view",
      "type": "function",
      "constant": true
    },
    {
      "inputs": [],
      "name": "owner",
      "outputs": [
        {
          "internalType": "address payable",
          "name": "",
          "type": "address"
        }
      ],
      "stateMutability": "view",
      "type": "function",
      "constant": true
    },
    {
      "inputs": [
        {
          "internalType": "address",
          "name": "",
          "type": "address"
        }
      ],
      "name": "pendingReturns",
      "outputs": [
        {
          "internalType": "uint256",
          "name": "",
          "type": "uint256"
        }
      ],
      "stateMutability": "view",
      "type": "function",
      "constant": true
    },
    {
      "inputs": [],
      "name": "roundNumber",
      "outputs": [
        {
          "internalType": "uint256",
          "name": "",
          "type": "uint256"
        }
      ],
      "stateMutability": "view",
      "type": "function",
      "constant": true
    },
    {
      "inputs": [
        {
          "internalType": "uint256",
          "name": "value",
          "type": "uint256"
        }
      ],
      "name": "generateBlindedBidBytes32",
      "outputs": [],
      "stateMutability": "payable",
      "type": "function",
      "payable": true
    },
    {
      "inputs": [],
      "name": "getBiddd",
      "outputs": [
        {
          "internalType": "bytes32",
          "name": "",
          "type": "bytes32"
        }
      ],
      "stateMutability": "view",
      "type": "function",
      "constant": true
    },
    {
      "inputs": [
        {
          "internalType": "bytes32",
          "name": "_blindedBid",
          "type": "bytes32"
        }
      ],
      "name": "bid",
      "outputs": [],
      "stateMutability": "payable",
      "type": "function",
      "payable": true
    },
    {
      "inputs": [
        {
          "internalType": "uint256",
          "name": "extraBid",
          "type": "uint256"
        }
      ],
      "name": "revealAndPlaceBid",
      "outputs": [],
      "stateMutability": "nonpayable",
      "type": "function"
    },
    {
      "inputs": [],
      "name": "roundEnd",
      "outputs": [],
      "stateMutability": "nonpayable",
      "type": "function"
    },
    {
      "inputs": [],
      "name": "withdraw",
      "outputs": [
        {
          "internalType": "bool",
          "name": "success",
          "type": "bool"
        }
      ],
      "stateMutability": "nonpayable",
      "type": "function"
    },
    {
      "inputs": [],
      "name": "cancelAuction",
      "outputs": [],
      "stateMutability": "nonpayable",
      "type": "function"
    }
  ],
  "bytecode": "0x60806040526078600d55603c600e5534801561001a57600080fd5b506040516111803803806111808339818101604052606081101561003d57600080fd5b8101908080519060200190929190805190602001909291908051906020019092919050505080600260006101000a81548173ffffffffffffffffffffffffffffffffffffffff021916908373ffffffffffffffffffffffffffffffffffffffff16021790555082600160006101000a81548173ffffffffffffffffffffffffffffffffffffffff021916908373ffffffffffffffffffffffffffffffffffffffff16021790555081600081905550600d544201600b81905550600e54600b5401600c8190555060016005819055505050506110638061011d6000396000f3fe60806040526004361061011f5760003560e01c80638da5cb5b116100a0578063a1d8763311610064578063a1d8763314610468578063c02e580e14610493578063d1ab07b4146104aa578063d3a86386146104e5578063d57bde79146105105761011f565b80638da5cb5b146103745780638fa8b790146103b557806391f90157146103cc578063957bb1e01461040d5780639a82a09a1461043b5761011f565b80633ccfd60b116100e75780633ccfd60b146102855780634e2786fb146102b25780635ec2c7bf146102dd57806360726abb1461031e57806377971cd1146103495761011f565b806301495c1c1461012457806312fa6feb1461019a57806322b45727146101c757806326b387bb146101f25780632a1a985b14610257575b600080fd5b34801561013057600080fd5b5061017d6004803603604081101561014757600080fd5b81019080803573ffffffffffffffffffffffffffffffffffffffff1690602001909291908035906020019092919050505061053b565b604051808381526020018281526020019250505060405180910390f35b3480156101a657600080fd5b506101af610579565b60405180821515815260200191505060405180910390f35b3480156101d357600080fd5b506101dc61058c565b6040518082815260200191505060405180910390f35b3480156101fe57600080fd5b506102416004803603602081101561021557600080fd5b81019080803573ffffffffffffffffffffffffffffffffffffffff169060200190929190505050610592565b6040518082815260200191505060405180910390f35b6102836004803603602081101561026d57600080fd5b81019080803590602001909291905050506105aa565b005b34801561029157600080fd5b5061029a61064f565b60405180821515815260200191505060405180910390f35b3480156102be57600080fd5b506102c76107bc565b6040518082815260200191505060405180910390f35b3480156102e957600080fd5b506102f26107c2565b604051808273ffffffffffffffffffffffffffffffffffffffff16815260200191505060405180910390f35b34801561032a57600080fd5b506103336107e8565b6040518082815260200191505060405180910390f35b34801561035557600080fd5b5061035e6107ee565b6040518082815260200191505060405180910390f35b34801561038057600080fd5b506103896107f8565b604051808273ffffffffffffffffffffffffffffffffffffffff16815260200191505060405180910390f35b3480156103c157600080fd5b506103ca61081e565b005b3480156103d857600080fd5b506103e16108c9565b604051808273ffffffffffffffffffffffffffffffffffffffff16815260200191505060405180910390f35b6104396004803603602081101561042357600080fd5b81019080803590602001909291905050506108ef565b005b34801561044757600080fd5b506104506109af565b60405180821515815260200191505060405180910390f35b34801561047457600080fd5b5061047d6109c2565b6040518082815260200191505060405180910390f35b34801561049f57600080fd5b506104a86109c8565b005b3480156104b657600080fd5b506104e3600480360360208110156104cd57600080fd5b8101908080359060200190929190505050610c1e565b005b3480156104f157600080fd5b506104fa610fa3565b6040518082815260200191505060405180910390f35b34801561051c57600080fd5b50610525610fa9565b6040518082815260200191505060405180910390f35b6009602052816000526040600020818154811061055457fe5b9060005260206000209060020201600091509150508060000154908060010154905082565b600f60009054906101000a900460ff1681565b60065481565b600a6020528060005260406000206000915090505481565b600f60009054906101000a900460ff16156105c457600080fd5b600160009054906101000a900473ffffffffffffffffffffffffffffffffffffffff1673ffffffffffffffffffffffffffffffffffffffff163373ffffffffffffffffffffffffffffffffffffffff16141561061f57600080fd5b80604051602001808281526020019150506040516020818303038152906040528051906020012060088190555050565b6000600360009054906101000a900473ffffffffffffffffffffffffffffffffffffffff1673ffffffffffffffffffffffffffffffffffffffff163373ffffffffffffffffffffffffffffffffffffffff161415806106c1575060011515600f60019054906101000a900460ff161515145b6106ca57600080fd5b600080339150600a60008373ffffffffffffffffffffffffffffffffffffffff1673ffffffffffffffffffffffffffffffffffffffff16815260200190815260200160002054905060008111156107b2576000600a60008473ffffffffffffffffffffffffffffffffffffffff1673ffffffffffffffffffffffffffffffffffffffff168152602001908152602001600020819055508173ffffffffffffffffffffffffffffffffffffffff166108fc829081150290604051600060405180830381858888f193505050501580156107a6573d6000803e3d6000fd5b506001925050506107b9565b6000925050505b90565b60055481565b600260009054906101000a900473ffffffffffffffffffffffffffffffffffffffff1681565b60075481565b6000600854905090565b600160009054906101000a900473ffffffffffffffffffffffffffffffffffffffff1681565b600f60019054906101000a900460ff161561083857600080fd5b600f60009054906101000a900460ff161561085257600080fd5b600260009054906101000a900473ffffffffffffffffffffffffffffffffffffffff1673ffffffffffffffffffffffffffffffffffffffff163373ffffffffffffffffffffffffffffffffffffffff16146108ac57600080fd5b6001600f60016101000a81548160ff021916908315150217905550565b600360009054906101000a900473ffffffffffffffffffffffffffffffffffffffff1681565b600b548042106108fe57600080fd5b600f60019054906101000a900460ff161561091857600080fd5b600960003373ffffffffffffffffffffffffffffffffffffffff1673ffffffffffffffffffffffffffffffffffffffff1681526020019081526020016000206040518060400160405280348152602001848152509080600181540180825580915050600190039060005260206000209060020201600090919091909150600082015181600001556020820151816001015550505050565b600f60019054906101000a900460ff1681565b60085481565b600c548042116109d757600080fd5b600260009054906101000a900473ffffffffffffffffffffffffffffffffffffffff1673ffffffffffffffffffffffffffffffffffffffff163373ffffffffffffffffffffffffffffffffffffffff1614610a3157600080fd5b600f60019054906101000a900460ff1615610a4b57600080fd5b600f60009054906101000a900460ff1615610a6557600080fd5b60016006541115610b01577f058b7dbb20bfd3991f864b0981b80accb9620c4b2e4f38712eaf1b53b189a0b3600360009054906101000a900473ffffffffffffffffffffffffffffffffffffffff16600454600654604051808473ffffffffffffffffffffffffffffffffffffffff168152602001838152602001828152602001935050505060405180910390a1610afb610faf565b50610c1b565b600f60009054906101000a900460ff1615610b1b57600080fd5b7fdaec4582d5d9595688c8c98545fdd1c696d41c6aeaeb636737e84ed2f5c00eda600360009054906101000a900473ffffffffffffffffffffffffffffffffffffffff16600454604051808373ffffffffffffffffffffffffffffffffffffffff1681526020018281526020019250505060405180910390a16001600f60006101000a81548160ff021916908315150217905550600160009054906101000a900473ffffffffffffffffffffffffffffffffffffffff1673ffffffffffffffffffffffffffffffffffffffff166108fc6004549081150290604051600060405180830381858888f19350505050158015610c19573d6000803e3d6000fd5b505b50565b600b54804211610c2d57600080fd5b600c54804210610c3c57600080fd5b600f60019054906101000a900460ff1615610c5657600080fd5b600f60009054906101000a900460ff1615610c7057600080fd5b600080600960003373ffffffffffffffffffffffffffffffffffffffff1673ffffffffffffffffffffffffffffffffffffffff16815260200190815260200160002080549050905084600960003373ffffffffffffffffffffffffffffffffffffffff1673ffffffffffffffffffffffffffffffffffffffff1681526020019081526020016000206001830381548110610d0657fe5b90600052602060002090600202016000015403600960003373ffffffffffffffffffffffffffffffffffffffff1673ffffffffffffffffffffffffffffffffffffffff1681526020019081526020016000206001830381548110610d6657fe5b9060005260206000209060020201600001819055506005548114610d8957600080fd5b6000600960003373ffffffffffffffffffffffffffffffffffffffff1673ffffffffffffffffffffffffffffffffffffffff1681526020019081526020016000206001830381548110610dd857fe5b90600052602060002090600202019050856040516020018082815260200191505060405160208183030381529060405280519060200120816001015414610e1e57600080fd5b60005b82811015610e9c576000600960003373ffffffffffffffffffffffffffffffffffffffff1673ffffffffffffffffffffffffffffffffffffffff1681526020019081526020016000208281548110610e7557fe5b90600052602060002090600202019050806000015485019450508080600101915050610e21565b503373ffffffffffffffffffffffffffffffffffffffff166108fc879081150290604051600060405180830381858888f19350505050158015610ee3573d6000803e3d6000fd5b506000548311610ef257600080fd5b600454831115610f45578260048190555033600360006101000a81548173ffffffffffffffffffffffffffffffffffffffff021916908373ffffffffffffffffffffffffffffffffffffffff1602179055505b82600a60003373ffffffffffffffffffffffffffffffffffffffff1673ffffffffffffffffffffffffffffffffffffffff16815260200190815260200160002081905550600660008154809291906001019190505550505050505050565b60005481565b60045481565b60006004546000819055506000600681905550600560008154809291906001019190505550600d544201600b81905550600e54600b5401600c819055507f64402c079e310de4fa60493e0474309303db59c5e6fb8e068a192e8d1997fe5a6000546040518082815260200191505060405180910390a160005490509056fea2646970667358221220959520a5311505e3d548c39539d3478e5b5f24526ae8f50d735775055e0de6fd64736f6c63430007000033",
  "immutableReferences": {},
  "source": "// SPDX-License-Identifier: MIT\r\npragma solidity >=0.7.0 <0.9.0;\r\n \r\ncontract Auction {\r\n    //VARIABLES\r\n    uint256 public minimumBid;\r\n    address payable public owner;\r\n    address public auctioneer;\r\n    address public highestBidder;\r\n    uint256 public highestBid;\r\n    uint256 public roundNumber;\r\n    uint256 public activeUsersCount;\r\n    uint256 public copy;\r\n    bytes32 public hashedBid;\r\n    // struct Bid {\r\n    //     bytes32 blindedBid;\r\n    //     uint256 deposit;\r\n    // }\r\n \r\n    struct Bid {\r\n        // 6 actual + 10 fake = 16\r\n        // address Bidder;\r\n        uint256 maskedBid;\r\n        bytes32 saltHash;\r\n    }\r\n \r\n    mapping(address => Bid[]) public bids;\r\n    mapping(address => uint256) public pendingReturns;\r\n \r\n    uint256 biddingEnd;\r\n    uint256 revealEnd;\r\n    uint256 biddingTime = 120 seconds; // bidding time is 150 seconds\r\n    uint256 revealTime = 60 seconds; // bid revealing time is 60 seconds\r\n    bool public ended;\r\n    bool public cancelled;\r\n \r\n    // MODIFIERS\r\n \r\n    modifier onlyBefore(uint256 _time) {\r\n        require(block.timestamp < _time);\r\n        _;\r\n    }\r\n    modifier onlyAfter(uint256 _time) {\r\n        require(block.timestamp > _time);\r\n        _;\r\n    }\r\n \r\n    modifier onlyAuctioneer() {\r\n        require(msg.sender == auctioneer);\r\n        _;\r\n    }\r\n    modifier onlyOwner() {\r\n        require(msg.sender == owner);\r\n        _;\r\n    }\r\n    modifier onlyNotOwner() {\r\n        require(msg.sender != owner);\r\n        _;\r\n    }\r\n    modifier onlyNotCancelled() {\r\n        require(!cancelled);\r\n        _;\r\n    }\r\n    modifier onlyValidWithdrawal() {\r\n        require(msg.sender != highestBidder || cancelled == true);\r\n        _;\r\n    }\r\n    modifier onlyNotEnded() {\r\n        require(!ended);\r\n        _;\r\n    }\r\n \r\n    // EVENTS\r\n    event GetBlindBid(bytes32 indexed hashed);\r\n    event roundEnded(address bidder, uint256 amount, uint256 userCount);\r\n    event AuctionEnded(address winner, uint256 amount);\r\n    event roundStarted(uint256 amount);\r\n \r\n    //FUNCTIONS\r\n \r\n    constructor(\r\n        address payable _owner,\r\n        uint256 _minimumBid,\r\n        address _auctioneer\r\n    ) {\r\n        auctioneer = _auctioneer;\r\n        owner = _owner;\r\n        minimumBid = _minimumBid;\r\n        biddingEnd = block.timestamp + biddingTime;\r\n        revealEnd = biddingEnd + revealTime;\r\n        //bufferTime = _bufferTime;\r\n        roundNumber = 1;\r\n    }\r\n \r\n    function generateBlindedBidBytes32(uint256 value)\r\n        payable\r\n        public\r\n        onlyNotEnded\r\n        onlyNotOwner\r\n       /// returns (bytes32)\r\n    {\r\n      \r\n        hashedBid = keccak256(abi.encodePacked(value));\r\n       // payable(owner).transfer(value);\r\n       // bid(hashedBid);\r\n       // emit GetBlindBid(hashedBid);\r\n       // return hashedBid;\r\n    }\r\n\r\n    // function gettBlindedBidBytes32() public view onlyNotEnded onlyNotOwner returns (bytes32) {\r\n    //   //  bytes32 bidHashed = hashedBid;\r\n    //    // emit getBlindBid(bidHashed);\r\n       \r\n    //     return hashedBid;\r\n        \r\n    // }\r\n\r\n    function getBiddd() public view returns (bytes32) {\r\n        return hashedBid;\r\n    }\r\n\r\n \r\n    function bid(bytes32 _blindedBid)\r\n        public\r\n        payable\r\n        onlyBefore(biddingEnd)\r\n        onlyNotCancelled\r\n    {\r\n        // bids[msg.sender].push(\r\n        //     Bid({blindedBid: _blindedBid, deposit: msg.value})\r\n        // );\r\n        // push is used as an array of structs exists and so, the newest struct is pushed into the array and forms the most recent element\r\n        bids[msg.sender].push(\r\n            Bid({maskedBid: msg.value, saltHash: _blindedBid})\r\n        );\r\n    }\r\n \r\n    function revealAndPlaceBid(uint256 extraBid)\r\n        public\r\n        onlyAfter(biddingEnd)\r\n        onlyBefore(revealEnd)\r\n        onlyNotCancelled\r\n        onlyNotEnded\r\n    {\r\n        uint256 totalBidValue;\r\n \r\n        uint256 length = bids[msg.sender].length;\r\n \r\n        bids[msg.sender][length - 1].maskedBid =\r\n            bids[msg.sender][length - 1].maskedBid -\r\n            extraBid;\r\n \r\n        // this function merges both the bid reveal process and the bid placing process\r\n        // To reveal the bid submitted by the user and place the bid (will return true if the bid is sucessfully placed)\r\n \r\n        // 0x1234 => [[hdjwhksjkd, 1], [ervbcdbchebdskcb, 2]]\r\n        // length measures the number of total bids submitted by the user in all rounds till now (single bid per round)\r\n        require(length == roundNumber); // check to make sure the user has participated in all rounds of the auction till now\r\n \r\n        Bid storage bidToCheck = bids[msg.sender][length - 1];\r\n \r\n        require(bidToCheck.saltHash == keccak256(abi.encodePacked(extraBid)));\r\n \r\n        for (uint256 i = 0; i < length; i++) {\r\n            Bid storage roundBid = bids[msg.sender][i];\r\n            totalBidValue += roundBid.maskedBid;\r\n        }\r\n \r\n        // totalBidValue -= extraBid;\r\n \r\n        payable(msg.sender).transfer(extraBid);\r\n \r\n        require(totalBidValue > minimumBid);\r\n        // (when totalBidValue > minimumBid)\r\n        if (totalBidValue > highestBid) {\r\n            highestBid = totalBidValue;\r\n            highestBidder = msg.sender;\r\n        }\r\n        pendingReturns[msg.sender] = totalBidValue;\r\n        activeUsersCount++; // this must be reset / initialized at the start of every round\r\n    }\r\n \r\n    function roundEnd()\r\n        public\r\n        onlyAfter(revealEnd)\r\n        onlyAuctioneer\r\n        onlyNotCancelled\r\n        onlyNotEnded\r\n    {\r\n        // if will be the case where one round has ended, more than 1 user remains and the auction proceeds to the next round\r\n        //roundEndTime = block.timestamp;\r\n \r\n        // must check for a case where no users participate in a round\r\n \r\n        if (activeUsersCount > 1) {\r\n            emit roundEnded(highestBidder, highestBid, activeUsersCount);\r\n            roundStart();\r\n            // minimumBid = highestBid;\r\n            // activeUsersCount = 0;\r\n            // roundNumber++;\r\n        }\r\n        // else will be the case where the auction has ended and only 1 user remains\r\n        else {\r\n            require(!ended);\r\n            emit AuctionEnded(highestBidder, highestBid);\r\n            ended = true;\r\n            // transfer the NFT to the highest bidder\r\n            // transfer the winning bid to the NFT owner\r\n            owner.transfer(highestBid);\r\n        }\r\n    }\r\n \r\n    function roundStart() internal returns (uint256 roundStartBid) {\r\n        minimumBid = highestBid;\r\n        activeUsersCount = 0;\r\n        roundNumber++;\r\n        biddingEnd = block.timestamp + biddingTime;\r\n        revealEnd = biddingEnd + revealTime;\r\n        emit roundStarted(minimumBid);\r\n        return minimumBid;\r\n    }\r\n \r\n    function withdraw() public onlyValidWithdrawal returns (bool success) {\r\n        // mention when a user can withdraw w.r.t the rounds taking place\r\n        address withdrawalAccount;\r\n        uint256 withdrawalAmount;\r\n \r\n        withdrawalAccount = msg.sender;\r\n        withdrawalAmount = pendingReturns[withdrawalAccount];\r\n        if (withdrawalAmount > 0) {\r\n            pendingReturns[withdrawalAccount] = 0;\r\n            payable(withdrawalAccount).transfer(withdrawalAmount);\r\n            return true;\r\n        } else {\r\n            return false;\r\n        }\r\n    }\r\n \r\n    function cancelAuction()\r\n        public\r\n        onlyNotCancelled\r\n        onlyNotEnded\r\n        onlyAuctioneer\r\n    {\r\n        cancelled = true;\r\n    }\r\n}\r\n",
  "sourcePath": "/mnt/c/Users/anike/onedrive/desktop/ust/smra/decentAuction/contracts/Auction.sol",
  "compiler": {
    "name": "solc",
    "version": "0.7.0+commit.9e61f92b.Emscripten.clang"
  },
  "schemaVersion": "3.2.3",
  "updatedAt": "2021-07-12T10:35:17.331Z",
  "networkType": "ethereum",
  "devdoc": {
    "kind": "dev",
    "methods": {},
    "version": 1
  },
  "userdoc": {
    "kind": "user",
    "methods": {},
    "version": 1
  }
}